:100000005555AAAA201700000000000000000000BB
:1000100092E6000000000000000000003756AFBE6E
:100020000002100005080000890200009F02000085
:10003000B5020000CB020000E10200000000000059
:100040000000000000000000000000001D30000063
:100050002130000000000000F70200002330000003
:1000600025300000412D0000DD300000792D00001A
:100070003F3000007F3000008330000091300000EE
:10008000A3300000A5300000A7300000C5300000FC
:10009000C7300000DF30000000000000000000005A
:1000A000E1300000E330000000000000000000002C
:1000B00000000000E5300000E73000008D2D00005A
:1000C000E9300000F73000000903000011310000A2
:1000D00013310000000000000000000000000000DC
:1000E0002017000000F002F800F05AF80AA090E88B
:1000F000000C82448344AAF10107DA4501D100F0E3
:100100004FF8AFF2090EBAE80F0013F0010F18BF55
:10011000FB1A43F00103184718E3010038E301001C
:100120000A444FF0000C10F8013B13F0070408BF1D
:1001300010F8014B1D1108BF10F8015B641E05D0BB
:1001400010F8016B641E01F8016BF9D113F0080F70
:100150001EBF10F8014BAD1C0C1B09D16D1E58BF02
:1001600001F801CBFAD505E014F8016B01F8016B39
:100170006D1EF9D59142D6D37047000000230024AC
:1001800000250026103A28BF78C1FBD8520728BFA7
:1001900030C148BF0B6070471FB51FBD10B510BD03
:1001A000DFF80CD0FFF7F8FF03F076F91DF05EFEE4
:1001B0000002100003B4FFF7F1FF03BC1DF05EFE68
:1001C0000A484FF0FF0101704FF0000080F31188E2
:1001D0004FF0000080F3098805484FF002010170DC
:1001E00062B604484FF080510160704722ED00E094
:1001F0000002100004ED00E002484FF08051016061
:100200007047000004ED00E04FF0200080F31188FB
:10021000EFF3098098B112480068124909688842D2
:1002200017D0EFF309800E49096820E9F00F8860C4
:1002300000B50B48006800F0F2F85DF804EB0848E0
:1002400008490A68026000688168B1E8F00F81F32C
:1002500009884EF0040E4FF0000080F311887047BB
:100260000402100008021000EFF311804FF020018B
:1002700081F31188704700004FF0000080F311886F
:100280007047000062B6704772B6704740BA704758
:10029000C0BA7047401E0028FCDC704700BE7047A3
:1002A00040BA7047C0BA70471EF0040F0CBFEFF39E
:1002B0000880EFF309804FF0010102F0E0BD1EF06D
:1002C000040F0CBFEFF30880EFF309804FF0020139
:1002D00002F0D5BD1EF0040F0CBFEFF30880EFF362
:1002E00009804FF0030102F0CABD1EF0040F0CBFDD
:1002F000EFF30880EFF309804FF0040102F0BFBD77
:100300001EF0040F0CBFEFF30880EFF309804FF0ED
:10031000050102F0B4BD4FF0000000B504F01CF977
:100320005DF804EBFFF770BF1EF0040F0CBFEFF396
:100330000880EFF309804FF0000102F0A0BD00003B
:10034000194910B5012008701849002008601849A3
:100350000860184908601849086000F0B9F900F011
:100360004BF900F063F8002010BD10B5114800F003
:100370002AF90F4908600D490968884207D00A48E0
:100380000078022803D1BDE81040FFF735BF10BD4B
:1003900010B5FFF7EAFF044902200870FFF710FFCD
:1003A0004FF0FF3010BD00000002100004021000EA
:1003B000080210000C0210001002100070B50D466B
:1003C0000446C1698068CC221DF053FCE169A06835
:1003D000084440384FF08071C163216A8163002175
:1003E00041630163C1628162C0E908514FF00B3182
:1003F000C1614FF00A3181614FF0093141614FF025
:10040000083101614FF00731C1604FF00631816062
:100410004FF0053141604FF00431016070BD8269D9
:100420008168914201D803F006B9704710B54FF4C6
:10043000B4714F481DF047FC002010BD70B5054653
:1004400000EBC5014A4800EB8104FFF70DFF0646AB
:10045000207828B13046FFF70FFF6FF0010070BD24
:100460000320207000206560206204F11C0000F071
:1004700083F83046FFF700FF002070BD2DE9F04102
:100480000F463B49002500EBC00001EB80042E46DF
:10049000FFF7EAFE8046206A3843206204F11C0020
:1004A000074600F090F80CE0216A026C114203D07C
:1004B00000F066F9012600E06D1C2946384600F080
:1004C00078F80028F0D1012E01D1FFF74EFF404609
:1004D000FFF7D2FE0020BDE8F08170B50D4624493B
:1004E00000EBC00001EB8004FFF7BEFE216AA943C8
:1004F0002162FFF7C1FE002070BD70B50C461C499B
:1005000000EBC00001EB800500202060FFF7ACFE8F
:10051000296A2160FFF7B0FE002070BD2DE9F0418F
:100520000D46134900EBC0001E46904601EB8004C7
:10053000FFF79AFE07460F4800680564216A2942C2
:1005400003D104F11C0100F02DF93846FFF794FEA9
:10055000FFF78AFE216A29403160B8F1010F02D10C
:10056000216AA9432162FFF787FE0020B3E700005C
:10057000E0061000040210000021016008467047E8
:1005800030B50A6812B10B46C46B09E0002208605E
:10059000C0E903210BE000BF02F10C03D26812B1E5
:1005A000D56BA542F8DC1A68C0E903211860002069
:1005B00030BD0068002201E0C068521C8A4201D0B0
:1005C0000028F9D170470068704702690AB11168C4
:1005D00031B96FF00400704701F10C02C96839B1FC
:1005E0008142F9D1C9681160002101610846704754
:1005F0006FF003007047000010B54FF4C871324827
:100600001DF061FB002010BD2DE9F0418846054634
:100610002D4900EB8500174601EBC004FFF724FECF
:100620000646207830B13046FFF726FE6FF0010015
:10063000BDE8F08102202070E7611422414604F1F8
:10064000080065601DF0D0FA0020206204F124004B
:10065000FFF792FF3046FFF70FFE0020E8E770B586
:10066000194900EB800001EBC004FFF7FDFD0546D2
:10067000D4E90701814205DB144804F12401006834
:1006800000F090F8206A401C20622846FFF7F4FD35
:10069000002070BD70B50C4900EB800001EBC00478
:1006A000FFF7E2FD0546206A08B1401E206204F112
:1006B0002400FFF788FF10B1606A00F011F82846A7
:1006C000FFF7DAFD002070BD48081000040210009A
:1006D00010B54FF42A7140481DF0F5FA002010BD06
:1006E00010B5044690F8380002280BD02046FFF7DA
:1006F0006CFF022084F8380038492046FFF740FF9D
:10070000FFF733FE002010BD2DE9F05F8B46064653
:10071000314900EB06109046DDE90AA911F82020C6
:100720001D461AB16FF00100BDE8F09F01EB800497
:10073000FFF79AFD074601202070C4E90165C4E96E
:100740000585C4E907A91422594604F124001DF0C7
:100750004BFA002084F8370084F838006169E060C3
:100760002061C4E90F1020460C99FFF727FEA06016
:100770002046FFF7B5FF3846FFF77EFD0020D3E7A0
:1007800010B5044690F83800022809D02046FFF73B
:100790001CFF022084F8380010492046FFF7F0FEC5
:1007A000002010BD70B5044690F838000D460228B0
:1007B0000BD12046FFF709FF032084F838002946B3
:1007C0002046FFF7DDFEFFF7D0FD002070BD044896
:1007D0000068406870470000D80910000C02100043
:1007E00004021000F0B58446002004460C4F14E0CB
:1007F0005CF824600323DD0046FA05F280EA02601B
:100800000825002802DA87EA400000E040006D1E5B
:10081000002DF6DC5B1EEED5641C8C42E8DBF0BDDF
:100820001B0000801248804712480047FEE7FEE7A1
:10083000FEE7FEE7FEE7FEE7FEE7FEE7FEE7FEE790
:10084000FEE7FEE7FEE7FEE7FEE7FEE7FEE7FEE780
:10085000FEE7FEE7FEE7FEE7FEE7FEE7FEE7FEE770
:10086000FEE7FEE7FEE7FEE7FEE7FEE7FEE7000045
:10087000AD080000C50000001E4800684FF00051A0
:10088000002891F8210000F01C000DD0042805D0AC
:10089000082805D00C2805D096200CE011200AE08D
:1008A000252008E04B2006E0042809D0082809D0BC
:1008B0000C2809D07020401E01F82C0F08707047DA
:1008C0000C20F8E71B20F6E73720F4E770470A49C9
:1008D00093200870D0E708490B200870CCE7054842
:1008E000006818B904480078932801D000207047A8
:1008F00001207047340400222100002010B504209C
:1009000000F0D0F9052000F0CDF9062000F0CAF97A
:10091000072000F0C7F9082000F0C4F9182000F003
:10092000C1F9192000F0BEF91A2000F0BBF9EF4A16
:1009300000201060ED4B40331860EC491839086016
:10094000EA4908310860EA49C871E84C143C206063
:10095000E64C0C3420600872E44C103C2060E34C00
:10096000103420604872E14C0C3C2060DF4C1434A1
:1009700020608872DD4C083C2060DC4C183420601C
:10098000C872DA4C283420608873241D2060C87334
:10099000241D206008740120106018600870062172
:1009A000042000F097F90621052000F093F90621B4
:1009B000084600F08FF90621072000F08BF9062188
:1009C000082000F087F90621182000F083F906219D
:1009D000192000F07FF904211A2000F07BF904208F
:1009E00000F06CF9052000F069F9062000F066F9C6
:1009F000072000F063F9082000F060F9182000F0EB
:100A00005DF9192000F05AF91A2000F057F9042076
:100A100000F03CF9052000F039F9062000F036F925
:100A2000072000F033F9082000F030F9182000F01A
:100A30002DF9BDE810401A2000F028B900EB800025
:100A4000AA494000002218390A60A94A521F1070B2
:100A5000012008607047A5490020183908607047D8
:100A600000EB8000A1494000002214390A60A04A2E
:100A7000121F10700120086070479C490020143933
:100A80000860704700EB8000984940000022103950
:100A90000A60974AD21E107001200860704793497F
:100AA000002010390860704700EB80008F4940003B
:100AB00000220C390A608E4A921E107001200860D4
:100AC00070478A4900200C390860704700EB8000AD
:100AD00086494000002208390A60854A521E10707B
:100AE000012008607047814900200839086070477C
:100AF0008049097848430A21B0FBF1F17E48491E3C
:100B000080F86010582181761121C176042280F886
:100B100060205C228276C17670477748002180F899
:100B200060105C2181761121C17670476F4A10B543
:100B3000283214680123D10664B10024146081F8BE
:100B4000350091F83F0000BF91F83F408442FBD050
:100B5000136010BD81F83500FAE700EBC00101EB2E
:100B600000106FF0030101EB800010B56349644C85
:100B70000978B0FBF1F0401E80B2FF280CD9010AC1
:100B80002170494200EB01206070FF20FFF7CEFF8B
:100B90002078401E207010BD002121706170BDE8DA
:100BA0001040C0B2C2E7514828300168002909D07E
:100BB00000210160C10691F83F0000BF91F83F207D
:100BC0008242FBD0704710B54D4C2178607851EAD5
:100BD000000207D051B1FF20FFF7A8FF2078401E88
:100BE000207010BDBDE810400BF063BBFFF79EFF07
:100BF0000020607010BD3D4A10B5303214680123EA
:100C0000590794B10024146081F8370091F83F002F
:100C100091F83F408442FBD0136091F83F0000BF41
:100C200091F83F208242FBD010BD81F83700F3E7F6
:100C30002E483030016800290AD0002101604FF0B1
:100C4000005191F83F0000BF91F83F208242FBD055
:100C5000704700EB800040001921B0FBF1F02849FB
:100C60000004000C488001D01920E7E6704710B559
:100C7000234C0023608830B11920FFF7DFFE608825
:100C8000401E608000E00123184610BD00F01F02E6
:100C90000121914040094FF0E02202EB8000C0F8B2
:100CA0000011704700F01F020121914040094FF0F0
:100CB000E02202EB8000C0F88011704700F01F02B4
:100CC0000121914040094FF0E02202EB8000C0F882
:100CD000801270474907090E002803DA00F00F0060
:100CE000084A00E0084A8154704700001C050022B1
:100CF00033000020E602100000100020E502100082
:100D00001402100014ED00E000E400E04948012165
:100D10000160002101607047474801210160002106
:100D20000160704710B5002000F06BF8FFF7F4FF8A
:100D3000FFF7ECFF4149002008604149A0200870FE
:100D4000002000F06AF8BDE81040002000F04DB827
:100D50003A4801211C38016000210160704710B53C
:100D6000002000F04EF8334901200860002000F018
:100D700054F8BDE81040002000F037B82D4901209C
:100D80001C39086070472F4800782E49491C0978A3
:100D9000401A00F03F0070472B4902780A704278F1
:100DA0004A7082788A70C278CA7002790A71427970
:100DB0004A7182798A71C079C87170472348006886
:100DC000417882784FF00050437A0374204B1B78AF
:100DD000437443891B0A83744389C3740175427544
:100DE000C1798175017AC175704700F01F02012138
:100DF000914040094FF0E02202EB8000C0F8001162
:100E0000704700F01F020121914040094FF0E0229D
:100E100002EB8000C0F88011704700F01F02012132
:100E2000914040094FF0E02202EB8000C0F88012B0
:100E3000704700005C840022A00000227C04002295
:100E400000E400E020040020000200203C0210002A
:100E5000D902100010B5092000F054F80A2000F063
:100E600051F8092000F05AF80A2000F057F805213F
:100E7000092000F05FF805210A2000F05BF83348F4
:100E80007F2141707C2282700171002100F8481995
:100E90002F490A684FF0010192F8C830DC070AD0E8
:100EA0009C0708D590F84A40C3F3820301FA03F384
:100EB0009C4380F84A4092F81131DC0721D0C3F3FB
:100EC0004203012B03D0234B4FF480641C60483055
:100ED000837802F211121478C4F3420401FA04F484
:100EE000A343837003791478C4F3420401FA04F431
:100EF0002343037103781278C2F3420291400B43FB
:100F0000037010BD00F01F020121914040094FF015
:100F1000E02202EB8000C0F88011704700F01F0251
:100F20000121914040094FF0E02202EB8000C0F81F
:100F3000801270474907090E002803DA00F00F00FD
:100F4000054A00E0054A815470470000480000202F
:100F50003C02100000E100E014ED00E000E400E0DD
:100F6000704710B5044602462A21002000F06EF9B1
:100F7000221D2B21002000F069F904F108022C2128
:100F8000002000F063F904F10C020F21032000F0AF
:100F90005DF92068000E032825D304F114022D21E9
:100FA000002000F053F904F110022E21002000F07F
:100FB0004DF904F11C022F21002000F047F904F143
:100FC00018023021002000F041F904F124023121FF
:100FD000002000F03BF904F120023221BDE810406E
:100FE000002000F033B910BD08B507216A46084655
:100FF00000F02CF9009808BD10B5BE4C07206070B9
:101000000020207044F2C000608000BF00BF00BF1D
:101010004CF2C000608000BF00BF00BF4CF2E00097
:1010200060800920FFF736F944F2E000608000BFDD
:1010300000BF00BF4FF48040608010BDF0B50025B8
:101040002E464FF00054E02717E000BF883401F02F
:101050003F0160702170678000BF00BF00BFD4F8FF
:1010600008C043F825C06680883C00BF6D1C521E36
:10107000491C3F2901D9401CC0B2002AE6DCF0BD62
:101080002DE9F0479B4D0026AD1C04462E80DFF86D
:1010900068920121C9F880104FF4C058A5F800806B
:1010A00000BF00BF00BF00BF00BF4FF480572F80BC
:1010B0003520FFF7EFF82E80FFF79EFF00F0DCF8F9
:1010C0005C2000F0EAF82346012208210020FFF707
:1010D000B5FF231D012209210020FFF7AFFF04F116
:1010E000080301220A210020FFF7A8FF04F10C03E6
:1010F00001220B210020FFF7A1FF04F110030122C0
:101100000C210020FFF79AFF04F1140301220D21A6
:101110000020FFF793FF00F0AFF8FFF76DFF2F807F
:1011200000BF00BF00BF00BF00BF00BF00BF00BFC7
:1011300000BF00BFA5F8008000BF00BF00BF00BF18
:1011400000BF4FF440602880C9F88060BDE8F08798
:10115000F0B54FF0000C059C0CB14FF0800CC5B2FF
:1011600000264FF00057644C28E000BF87F88950F4
:101170004FEAC05EBEF1000F01F03F0E4EEA0C0ECA
:1011800001DA4EF0400E87F888E053F826E0C7F801
:101190008CE04FF0010EC4F8B0E04FF0000EC4F840
:1011A000B0E0491CC9B2402902D36D1CEDB2002148
:1011B000D4F8C0E0BEF1000FFAD1761C9642D5DB20
:1011C000F0BD4FF0005282F88900002309B1802061
:1011D00002E0C00503D5402082F8880001E082F8D3
:1011E000883045480121C0F8AC10C0F8AC3000BFD1
:1011F000D0F8C0100029FBD17047F8B50C46054661
:101200004FF4F47600213046FFF7DBFF0020014663
:1012100000902B4622463046FFF79AFFF8BDF8B5FE
:101220000C4605464FF4F87600213046FFF7C9FF1B
:1012300000214FF4FC70FFF7C4FF0020014600902E
:101240002B4622463046FFF783FFF8BD294B5870E6
:1012500041F0800003F8880927480021B43001607C
:10126000012140F8B41900BFD0F8C0100029FBD10B
:10127000D3F890001060704710B51E4C4FF48040BA
:10128000A41C20800420FFF705F80020208000BF68
:1012900000BF00BF00BF00BF10BD70B5154C2126B8
:1012A000A41C268000BF00BF00BF00BF00BF40F0ED
:1012B0002105258000BF00BF00BF00BF00BF44F272
:1012C0002101084320800420FEF7E4FF258000BFB1
:1012D00000BF00BF00BF00BF268000BF00BF00BF2F
:1012E00000BF00BF0020208000BF00BF00BF00BFC4
:1012F00000BF70BD8800002000100022F8B5FA4C35
:10130000002635466670E660266166610120A661AA
:1013100001F004F80C2001F001F8032000F0FEFFBA
:10132000172000F0FBFF012001F004F80C2001F071
:1013300001F8032000F0FEFF172000F0FBFF01F092
:101340005BF86A460221E94801F0F3FCE8499DF8A0
:101350000000E84A08709DF801101170442802D07E
:10136000542800D0042601F05AFA01F04EFA052163
:10137000012000F0EBFF05210C2000F0E7FF062123
:10138000032000F0E3FF0621172000F0DFFF01201B
:1013900000F0B8FF032000F0B5FF172000F0B2FF07
:1013A000E570A57025713046F8BD70B5CE4B5889F3
:1013B000C0F38001C0F34016C0F300247140C0F3B5
:1013C000C0226140C0F3803551406940400840EA86
:1013D000C130588170BDD065704738B50D4600905A
:1013E00014460421684602F08FFAC3498978C90679
:1013F00002D5072D00D1401C0099616584F8530087
:1014000038BD2DE9F04FBD4D0646BB4C28688BB06A
:1014100090F83304C00718D0608840F080006080E6
:10142000FFF7C3FF296800F00700084490F8340470
:1014300084F84100FFF7B9FF2968C0F3021008449F
:1014400090F83404800084F840004FF0000B84F8DA
:101450004BB02868A44F062E90F845076075387881
:1014600002D0062827D010E006280ED001208DF8E3
:101470000000684602F0D7FC684601F0A1F8684613
:1014800001F055F8684601F080FB97484FF00208DC
:101490004FF0E90A06709A48042EC0F30E070DD0EB
:1014A000032E26D04FF00409022E46D0052E60D020
:1014B000062E7CD0EEE08DF800B0DAE78E4A314699
:1014C000E06AFFF78AFF206BE065A4F84C70A07813
:1014D00080060028286890F8580703DA20F00600F4
:1014E00040F0040084F8510084F8528084F84EA043
:1014F000D0E0814A3146E06AFFF76FFF206BE0657C
:101500007D4804212C3002F0FFF97D4901EB800079
:10151000C0F30E00A4F84C00A078800600282868CC
:1015200090F8580703DA20F0060040F0040084F831
:10153000510084F85280ED2018E06F4A3146E06A8D
:10154000FFF74BFF206BE065A4F84C70A078800695
:101550000028286890F8580703DA20F0060040F0C9
:10156000040084F8510084F85290E52084F84E007D
:1015700090E0A078800628D528682C3400F2C93085
:101580005D4A01782176C178A1764178A17780788B
:101590002073E07F314640F00100E0772068FFF7DC
:1015A0001CFF5848C0F30E002084286800E00DE0BE
:1015B00090F8580720F0060040F0020084F825005B
:1015C00084F8268084F822A02C3C63E04A4A314605
:1015D000E06AFFF702FF206BE0654948F830C0F38E
:1015E0000E00A4F84C00628890060028286890F845
:1015F000510203DA20F0060040F0040084F85100A4
:1016000041480078012811D1296891F85002C30798
:101610000CD091F81011090608D53C49097829B970
:10162000800703D5012184F8528002E0002184F86C
:1016300052902868D20500F25220038824F8343FE3
:10164000438863800379237143796371C388E3809E
:1016500003892381837AA372C37AE372037B2374A1
:10166000A0F25220A4F1340403D490F8932784F814
:10167000462090F85F0284F84A0011B184F84EA029
:1016800002E0E52084F84E0094F84B0040F004009E
:1016900084F84B00286890F8FD16C907A1784FEA36
:1016A000817135D0002935DB94F84B10490736D4C9
:1016B00090F8FC06C0070DD00021012003F0EAF8E5
:1016C00094F84F0020F00300801C84F84F00A4F829
:1016D00042B028E00121084603F0DCF894F84F00FE
:1016E00040F003001DE0000018021000041000206C
:1016F000D8021000D9021000800C10003C0210002B
:10170000009F0120F0A0012057021000810210006C
:10171000002904DA90F8660720F0030001E090F851
:10172000660784F84F00607D20F004006075F6487D
:1017300086700BB0F548BDE8F04F01F052B9F4489F
:101740000168F24891F8002280F8212091F80122E6
:10175000C2754288D20507D491F8022202F00F0226
:10176000827591F88F27027501F203210A7802F041
:101770003F020276B1F801208283CA788277E54A77
:101780000979127801F0F00141EA1211C17770472E
:10179000DF48DD4A0168D27901F1D20030F8122029
:1017A000DA48428311F8F93FC3754B78037689789C
:1017B0008177002101758175D649083909785A2940
:1017C00004D1D449C91F09781144418370472DE9D8
:1017D000F047CE4C0546002084F84B00CC4FE1206A
:1017E00084F84E003868DFF82C93C74E90F8451700
:1017F000617590F8FD165FEAC1782146B1F802C024
:10180000CB7D0CF0FF024CF0010104D05FEA8C7C30
:1018100001D4012D0AD0DFF80083082D0DD0092D49
:101820002ED0072D55D00A2D72D04BE07371B271B6
:101830000A22E2756180B84911E07371B27161806A
:10184000417D027D4B1C94F860C003FB02F1BCF1AA
:10185000010F02D902FB0CF1594308EB4101C1F31E
:101860000E01A4F84C1090F8531799F8002001F0DD
:10187000F00102F00F021143E17790F8550718E0EC
:10188000FFF786FF3968F279087D5043A34A02EBDF
:101890004000C0F30E00A4F84C0091F8530799F8EB
:1018A000002000F0F00002F00F021043E07791F802
:1018B000550784F82100954A29460120FFF78DFD40
:1018C0002069E06561884807607D2FD520F004001D
:1018D00032E0427D338B017D521C5A43514308EB69
:1018E0004101C1F30E01A4F84C1090F8531799F878
:1018F000002001F0F00102F00F021143E17790F8AF
:10190000550784F82100814A2946E068D6E7FFE7B9
:101910008348C0F30E00A4F84C00FFF710FF7B4A89
:101920002946606AFFF759FDA06ACAE73A6892F84B
:10193000452702F0040210436075C80705D094F8EB
:101940004E0040F0020084F84E0038684FEA817182
:1019500090F8FD26D20718D0002918DB072D04D0F7
:101960000A2D02D0012D05D01AE014F84F0F20F0F7
:10197000030008E00021012002F08CFF14F84F0F53
:1019800020F00300801C20700AE0002904DA90F89F
:10199000660720F0030001E090F8660784F84F0026
:1019A000B570BDE8F047594800F0ACBF072812D029
:1019B0000A2810D001280ED008280CD009280AD0F7
:1019C000042807D0032805D0052803D0022801D019
:1019D000062801D115E5FAE670472DE9F8434A4D8E
:1019E0008146012901D1002028722C7A4D4E641CB9
:1019F000474FDFF818810FE0386890F8FD06C00700
:101A000002D098F80200800756F82420694648461C
:101A10009047012805D0641C0B2CEDD90020BDE8AF
:101A2000F8832C729DF80000F9E72DE9F041064695
:101A3000008800283BD064223146344802F0BDFCC7
:101A4000FEF7C5FE304C0025314FC4E90650E57164
:101A5000386890F8FD06C0070AD0B078800707D430
:101A60002A49088810F0760F02D040F080000880E4
:101A7000A07800281BD101212448FFF7AEFF060003
:101A800015D0294901200870386890F810114907CD
:101A90000FD590F8430780070BD401F012F902200C
:101AA000E07001F012F9192001F03BF9A670BDE8D1
:101AB000F08165703046BDE8F04177E7002070475F
:101AC000C268120006D00088C00503D5082008703F
:101AD0000120704700207047C268120006D00088BD
:101AE000000503D5092008700120704700207047C9
:101AF000C268120006D00078C00703D00720087023
:101B0000012070470020704718021000800C100060
:101B10003C021000F6FF010000800120009E012021
:101B200070A1012068DE0100E3021000426A120089
:101B300006D00078000703D50A20087001207047FE
:101B400000207047C268120005D00078000602D558
:101B500001200870704700207047C26A120008D048
:101B6000026B32B10078800603D502200870012094
:101B7000704700207047C26A120006D00078C00685
:101B800003D5052008700120704700207047C26A05
:101B9000120006D00078800703D5042008700120C9
:101BA000704700207047026B32B10078400703D5C0
:101BB000032008700120704700207047C26A12009D
:101BC00008D0026B32B10088400503D506200870AA
:101BD00001207047002070470020087001207047E6
:101BE0002DE9F0410421F94801F08EFE0446F74842
:101BF0000421001D01F088FEF54F0546DFF8CC8377
:101C0000B878F44EA8F12C08042801D002280CD191
:101C100098F80200800602D5A200EE4902E06200B8
:101C200006EB4401EC4802F0C8FBB878032801D069
:101C3000022811D198F80200800603D5AA0006EB0D
:101C4000840104E005EB44006A0006EB4001BDE8B6
:101C5000F041E24802F0B1BB29E730B589B001207C
:101C60008DF80000DE48D94DD94C0068A5F12C054F
:101C700090F8FD06C0070AD0A878800707D4A0789E
:101C8000012804D102208DF800000AF01BFB00F0AF
:101C900080FBD4480190CF480390217900F51C7057
:101CA00000EB4100049000202071CF480590A96806
:101CB0006846884709B030BDF0B5C94B47F6FF729A
:101CC00001291B6803D01B7DC84C00211EE0C74CB6
:101CD0005B7D3C3CF9E70D18EDB2C54FEE18F6B24E
:101CE00037F815E007F1800C37F816703CF81550FE
:101CF0003CF81660AEEB0505BE1B35442DB224F84A
:101D00001150954200DA2A46491CC9B29942E2D3E1
:101D1000002006E034F81010891A24F81010401C36
:101D2000C0B29842F6D3F0BD2DE9F84FAC4D01207A
:101D300000902868A74C002690F8F816C90730D004
:101D4000A2492C3991F8487007B901279F49DFF85B
:101D500080822C3991F8471091FBF7F10FFA81FA44
:101D600098F80210042902D0032903D00BE0407D2B
:101D7000460023E0007D04214600944801F0C4FDA4
:101D8000944901EB800498F8020002280AD0052843
:101D90000FD0042812D0032810D002280ED0052816
:101DA0000CD03DE128688B4C417D007D0844460005
:101DB00004E028688C4C3A2690F8F9A6D8F80C2054
:101DC00091465245EDDCB9F1000F05D186484FF43C
:101DD000F87194301BF077FFC64698F80200DFF8E0
:101DE0001082002108F18008A8F5AA6B2BE000BF43
:101DF0005BF8213034F911C0042863444BF82130DA
:101E000001D003281ED1B9F1000F07D1784B002271
:101E100023F8112047F6FF7228F81120DFF8D0C10F
:101E200034F911203CF911309A4200DC1A462CF8A2
:101E3000112034F9112038F911309A4200DB1A468A
:101E400028F81120491CB142D2DB09F10101CEF87A
:101E50000C1051457DDB0023DFF89891F046CEF859
:101E60000C30042806D003282ED0022856D005288E
:101E700070D0D5E001210020FFF71EFF53482C3819
:101E800090F8490060B12868407D41005648943080
:101E900002F084FCC8F81000782157481BF0F1FECE
:101EA00000204B465946D8F810200AE031F820505F
:101EB0007D43AD1A24F8105051F8205043F82050BB
:101EC000401CB042F2DBABE000210846FFF7F4FE15
:101ED0003E482C3890F8490060B12868007D4100E8
:101EE0004148943002F05AFCC8F81400802143485D
:101EF0001BF0C7FE00204B465946D8F814200AE0D4
:101F000031F820507D43AD1A24F8105051F820507C
:101F100043F82050401CB042F2DB81E02B482C38C3
:101F200090F84900E8B12868407D41002E4894307F
:101F300002F034FCC8F810002868017D427D490099
:101F40000BEBC20002F02AFCC8F8140078212A48E2
:101F500001E061E034E01BF094FE802127481BF093
:101F600090FE002043464A4659460EE031F820C014
:101F7000B3F810800CFB07FCACEB080C24F810C085
:101F800051F820C042F820C0401CD5F800C09CF891
:101F900015C0B0EB4C0FE9DB28685B69407D400061
:101FA0000BE000BF31F820507D43ED1A24F81050AB
:101FB00051F8205042F82050401CB042F2DB2FE094
:101FC0000B4A00205946F03A23E00000AC0C100008
:101FD00018021000009F012088AC012000AD0120F4
:101FE0003C02100000800120F0A0012090A70120F9
:101FF00054A6012074A3012080AD0120F8AD01207A
:1020000031F8203024F8103051F8203042F82030D8
:10201000401CB042F4DB03E0FFF7C8FC0020009056
:102020000098BDE8F88FCF4910B58A780120092AB9
:1020300010D1CB795B1CDCB2CB4BCC711B6893F815
:10204000D13003F00F035B1C9C4204D21046FFF713
:10205000ADFC002010BD0022CA7110BDC14910B5F1
:102060008A780120072A0BD18B69C04C5B1C8B61DD
:1020700094F86040A34204DA1046FFF797FC002072
:1020800010BD00228A6110BD70B5B74909684B7D4B
:10209000097D5B1C4B43B5490C460A7894F86040B7
:1020A000D2071FD0012C1DD9498849051AD5002017
:1020B000AF4A14E0012109E001FB030632F8105099
:1020C00032F81660491C354422F810508C42F3DC7B
:1020D00032F9101091FBF4F122F81010401C9842D4
:1020E000E8D370BD047770BD2DE9F04188B0FFF7EB
:1020F00077FDFFF798FF00282AD0FFF7AFFF0028F1
:1021000026D09A4DA878400603D4FFF70DFE00288C
:102110001ED0954E934C306890F8FD06C0070BD04A
:10212000A878800708D4A078012805D16079E875DF
:10213000A07968800AF0C6F8A078082801D1A079B3
:10214000688000218948FFF748FC18B1FFF72EFC92
:1021500008B0ACE487480027A7700770306890F893
:10216000FD06C00706D0A878800703D400210846E2
:1021700002F090FB8049A4200873306890F81001A9
:10218000400702D5E77000F08AFD607801282BD067
:102190008DF8007001208DF81C006846FFF774FF71
:1021A0002888DFF8D881400507D53068407D420097
:1021B00008EB4001404602F000F96D48019000F53F
:1021C000F050029000F580700390217900F51C70AA
:1021D00000EB4100049069482771F830CDE905080B
:1021E000A96868468847B3E703208DF80000D1E767
:1021F00070B55D485F4D4FF00004016891F8100123
:10220000420758480AD591F84317890706D4C17880
:10221000012908D002290FD0032903D1C470FFF788
:102220001CFD2C7070BD0221C17000F04EFDBDE898
:102230007040322000F075BD0321C1708078BDE888
:102240007040FFF7B3BBF0B500224D1E11E0531CE8
:102250001F460AE030F8126030F81340A64203D956
:1022600020F8136020F812405B1C9BB28B42F1D324
:10227000BAB2AA42EBDBF0BD2DE9FF4100252E46A4
:102280002946012002F006FB00246F4600F0B2FD53
:1022900027F81400641CA4B2082CF7D30821684660
:1022A000FFF7D1FF5FF0020037F8101019B1314489
:1022B0006D1C8EB2ADB2401C80B20628F4D3B6FBC2
:1022C000F5F004B0C8E438B50C460546012269466D
:1022D000104600F074FD9DF80000000928709DF87C
:1022E000000000F00300207038BD08B501F00301C4
:1022F00041EA00118DF8001001226946104600F0F5
:1023000091F908BD00F01F020121914040094FF0F2
:10231000E02202EB8000C0F80011704700F01F02BD
:102320000121914040094FF0E02202EB8000C0F80B
:102330008011704700F01F020121914040094FF0C9
:10234000E02202EB8000C0F8801270474907090EB6
:10235000002803DA00F00F00094A00E0094A81541E
:1023600070470000180210003C021000800C1000A2
:1023700000800120E302100000100020F89F0120DF
:1023800014ED00E000E400E0FE4801680029FCD103
:102390007047FD4800220260FB481C380260FB4881
:1023A000026101210161826081600260016002605E
:1023B000F449A0F574700B68002BFCD1F4490B7B39
:1023C00043F020030B730B7B23F040030B730B7B59
:1023D00023F080030B730B7B23F020030B73C0F8F7
:1023E000D823C0F8E023EB4802707047E548183066
:1023F00001680029FCD1704730B5E44800247430EE
:102400000460E24880300460E048C4600121C1609B
:10241000C460046001600460DF4D20202870687093
:10242000DB49593D0873A4200873D6481830016869
:102430000029FCD1FFF7ADFFD848046085F834408F
:1024400030BDF0B5D64827250078442802D054285E
:1024500000D1182500224FF4F831CA4ECC485C2731
:1024600024E00C465FF0000303EB000E11F803C0FC
:102470005B1C8EF860C00C2BF6DB3368002BFCD1A4
:102480008276C77604F10C0103EB000E11F803C04D
:102490005B1C8EF860C00C2BF6DB31680029FCD188
:1024A000511C8176C77604F13001921CB2EB450FC6
:1024B000D7DBF0BD2DE9F0479246089E5B1EC6F1C2
:1024C00008010022B24C01F0FF0C1546002189469C
:1024D0009A420BDA00EB0208875C98F8018027FA31
:1024E00006F708FA0CF847EA080703E007D1875C0B
:1024F00027FA06F701EB040888F8607003E001EBA7
:10250000040888F8609001F1010102F101020C2930
:10251000DEDB9C490F68002FFCD10AEB0501A17698
:102520005C21E1766D1C022DD0DBBDE8F08778B52B
:1025300000259C4E00950446006A112332782946F6
:10254000FFF7B8FF0095182372780021606AFFF743
:10255000B1FF78BD00B58BB000208DF80000684653
:1025600001F061FC6846FFF7E2FF0BB000BD2DE90A
:10257000F0470024DFF80C8285498246254626462E
:102580004FF05C0900209C4206DA00EB010C1AF8BF
:1025900004708CF8607002E0471887F86060641C73
:1025A000401C0C28EFDB00BFD8F800000028FBD14E
:1025B0005019887681F81B906D1C032DE2DBB4E77F
:1025C00030B5784D044640691623AA780021FFF7FC
:1025D000CEFFEA78A069BDE8304020230021C6E79D
:1025E00000B58BB000208DF80000684601F01BFCA0
:1025F0006846FFF7E5FFB8E7F0B50024644D05E055
:10260000165D6719641C87F8606064B29C42F7DB52
:102610005C4A1468002CFCD1A976184340F01000E5
:10262000E876F0BD70B50023594C05E0CD5C1E196D
:102630005B1C86F860505BB29342F7DB51490B6834
:10264000002BFCD1A07642F01000E07670BD30B5D2
:10265000554C07220220216801F24271FFF7E2FF88
:102660002168022201F24A710920FFF7DBFF21688D
:10267000062201F24D710B20FFF7D4FF20684B4971
:102680004B4D90F85307097800F0F00001F00F016E
:1026900008432870012229461120FFF7C3FF216853
:1026A000032201F257711620FFF7BCFF3F480122B9
:1026B000401E007800F00F01206890F85A0761F37F
:1026C0001F10287029461920FFF7ACFF216801224E
:1026D00001F25B711A20FFF7A5FF2168042201F2C5
:1026E0005C711B20FFF79EFF30480222C01C294668
:1026F000007828702D48401C007868701F20FFF774
:1027000091FF2168022201F5EC612120FFF78AFF89
:1027100026480222001D2946007828702348801C84
:10272000007868702720FFF77DFF2168012201F201
:1027300063712A20FFF776FF2168072201F2667194
:102740003D20FFF76FFF2068022290F86E17297076
:1027500090F86F07687029464420FFF763FF2168EF
:10276000022201F5EE614620FFF75CFF2168082296
:1027700001F272714820FFF755FF2168082201F22B
:102780007A7117E0040B00221C0C0022D0030022F7
:10279000001000201A0210005900002040050022FD
:1027A000D8021000380210003C021000F6FF0100B1
:1027B000E40C10005020FFF735FF2168052201F2DC
:1027C00084715820FFF72EFF2268FF4D92F88F0783
:1027D0002870012302F28A72FA210020FFF70CFF11
:1027E0002268012302F28C720E21C020FFF704FF41
:1027F0002268012302F28D721421C020FFF7FCFE33
:10280000332068740B20A87430BD10B5FFF71FFF8C
:10281000FFF7E6FEFFF79EFEBDE8104011E630B57B
:102820005C2562225E236424E849442801D05428B0
:1028300004D00D704A708B70CC7030BD30200870A1
:1028400035204870322088703720C87030BD38B5C8
:102850000546DF4C406D00906073010AA173010CC6
:10286000E173000E2074042269462B20FFF7DAFE84
:10287000012205F153012F20FFF7D4FE95F85300F4
:10288000A074E86D0090E074010A2175010C617577
:10289000000EA075042269463520FFF7C3FE00989C
:1028A000800F84F84000CB49012208703920FFF7DF
:1028B000B9FE38BD00EBC00101EB00106FF0030161
:1028C00001EB800010B5C449C44A0978146890FB34
:1028D000F1F0401EC1B2012358075CB1002414601E
:1028E00080F8341090F83F1090F83F408C42FBD0B5
:1028F000136010BD80F83410FAE7B9480168012967
:10290000FCD170477CB5044600208DF804002046B9
:10291000FFF79DFFAC48B4F84C10401C0180217DAE
:1029200000F8011C94F84E104173A94EA07D86F862
:102930003600AC4D286890F842078DF80000618899
:10294000890503D520F012008DF8000001226946A8
:102950000220FFF767FE042204F115010520FFF7AE
:1029600061FE2968022201F24A710920FFF75AFE2E
:10297000022204F11A010C20FFF754FE022204F196
:102980001C010E20FFF74EFE052204F11E0110204F
:10299000FFF748FE286890F8FC06C0070AD001221D
:1029A00001A94420FFF73EFE022204F142013F202C
:1029B000FFF738FE012204F14F013D20FFF732FE00
:1029C000012204F150014420FFF72CFE84480168E5
:1029D0000129FCD194F84E0030732320FFF76AFFE1
:1029E0007CBD7EB50446FFF732FF7748B4F84C1043
:1029F000401C018094F8451000F8011C94F84E101A
:102A00004173784D286890F842078DF8000061887E
:102A1000890503D520F012008DF8000001226946D7
:102A20000220FFF7FFFD012204F115010520FFF749
:102A3000F9FD94F84B00664EC00708D0286800F2F4
:102A4000957190F8950786F83600012206E094F813
:102A5000460086F83600012204F146010620FFF701
:102A6000E1FD012204F144010720FFF7DBFD012213
:102A700004F14A010820FFF7D5FD286890F8FD16FB
:102A8000C90734D061888A0731D494F84B205207A3
:102A90002DD4B0F80027ADF80420B0F86A07ADF8DF
:102AA0000800090609D594F841100844ADF808005B
:102AB00094F840001044ADF80400022202A941201D
:102AC000FFF7B0FD022201A90920FFF7ABFD29683D
:102AD00091F8FC06C0071DD0012201F26E7144205E
:102AE000FFF7A0FD022204F142013F2010E090F820
:102AF000FC06C00707D000208DF80400012201A9C0
:102B00004420FFF78FFD2968022201F24A71092053
:102B1000FFF788FD012204F151011720FFF782FD24
:102B2000012204F152011820FFF77CFD022204F17A
:102B300034011B20FFF776FD022204F136011D202F
:102B4000FFF770FD012204F138012120FFF76AFD33
:102B5000012204F139012220FFF764FD012204F172
:102B60003F012A20FFF75EFD012204F14F013D20C5
:102B7000FFF758FD1A4801680129FCD194F84E006E
:102B800030732320FFF796FE7EBD30B50446C06942
:102B9000104D0122007800F00F011248006890F8F3
:102BA0005A0761F31F10287029461920FFF73AFDD4
:102BB000E068022229460078287060680078687012
:102BC0001F20FFF72FFD0FE05300002038021000F8
:102BD00000100020E40C1000E50210004005002267
:102BE000000B00223C0210002069294602220078D6
:102BF0002870A06800786870BDE83040272011E593
:102C00008E498F4B0A6892F84D2702700A68B2F815
:102C10005027428009681B7801F2537103F00F03BB
:102C20000A7802F0F0021A430271B1F80B20C28058
:102C300002818A7B82720A7CC27289780173704732
:102C400010B50446014601220B20FFF7EBFC0222DF
:102C5000A11C0E20FFF7E6FC0122211D1120FFF729
:102C6000E1FC0222A11D1D20FFF7DCFC022204F181
:102C700008012520FFF7D6FC012204F10A012220D9
:102C8000FFF7D0FC012204F10B012A20FFF7CAFC58
:102C900004F10C010122BDE810401320C2E469498F
:102CA00008B504200873654801226946006890F859
:102CB000430720F008008DF800000320FFF7B2FC66
:102CC00008BD604920200873704718B55E4C01228A
:102CD0006946207840F0F0008DF800001046FFF7BC
:102CE000A1FC5849C020087320788DF8000001220B
:102CF00069461046FFF796FC18BD5449002008604D
:102D00007047524840300168002909D00021016015
:102D10004FF0005191F83F0091F83F208242FBD0E4
:102D200070474A4900220A60494A10700120086031
:102D3000704770B5474C2368002BFCD11D4603E05B
:102D4000C6185B1C86F880508B42F9D32368002B91
:102D5000FCD102E0C45CD4545B1C8B42FAD370BD3E
:102D600010B501F014FCFFF7CCFF3B48007878B1B8
:102D70003848183801680029FCD13248C07840062C
:102D800002D5364901200870BDE81040FFF7ACB904
:102D900033490020087010BD10B501F0F8FB2B4935
:102DA00000200860BDE81040FFF722BA10B501F01E
:102DB000EEFBFFF7A6FFBDE81040FFF719BA214B65
:102DC00010B59876DA76234818380468002CFCD1C0
:102DD000012083F8E0001F480468002CFCD100208B
:102DE00005E0C41894F860400C54401C40B2904276
:102DF000F7DB10BD08B543F6FF70ADF80000022206
:102E000069463F20FFF70EFC0220ADF800000122CA
:102E100069463D20FFF706FC0A49E02008734FF49D
:102E20001670FDF737FA022269468720FFF7C7FFC1
:102E3000FFF735FFBDF8000008BD00003C021000A0
:102E4000F6FF0100001000207402100000050022AF
:102E50002D0000201C0B00221A0210001902100085
:102E6000E30210007048006890F8F007C00605D52E
:102E7000ED214EF6ED52084609F093FBFEE70546BC
:102E80000E46012009F04FFB694C6848C4E9000672
:102E90002868A0606868E060A8682061E8686061F0
:102EA0002869A0616869E061A8692062614EE869EB
:102EB000606230685F4FA062103F386807F1040815
:102EC000E062D8F8000008F104092063D9F8000096
:102ED00006F1040A6063DAF80000DFF858B1A06375
:102EE000ABF1340BDBF80000E063381F00682064AE
:102EF000FDF76DFC6064504800210068A0640F205D
:102F00002A6809F028FB01210F206A6809F023FBD9
:102F100002210F20AA6809F01EFB03210F20EA6896
:102F200009F019FB0C210F202A6909F014FB0E216E
:102F30000F206A6909F00FFB0F210846AA6909F002
:102F40000AFB20210F20EA6909F005FB32682121E4
:102F50000F2009F000FB3A6822210F2009F0FBFA4C
:102F6000D8F8002023210F2009F0F5FAD9F8002025
:102F700024210F2009F0EFFADAF8002025210F2094
:102F800009F0E9FADBF8002026210F2009F0E3FA26
:102F9000381F026827210F2009F0DDFAFDF717FC22
:102FA000024630210F2009F0D6FAFFF75BFF012817
:102FB00007D002280FD0032805D0042805D004210B
:102FC0000AE0012108E0032106E00021032009F0C6
:102FD000AAFAFFF747FF0221032009F0A4BA10B5AF
:102FE00004460146042009F09EFA012C01D1FFF7A6
:102FF00039FF10BD0146082009F095BA01460620A8
:1030000009F091BA10B504460146072009F08BFA81
:10301000012C03D0022C01D0032C01D1FFF722FF99
:1030200010BD0320EEE700003C021000AF0550FA8F
:103030005800012038ED00E08402100001F0A7BA2A
:10304000704770473B4810B5016821F004010160EA
:1030500001F09DFABDE8104019F004BB70473648F6
:1030600010B5006890F81001C00617D533480078F5
:1030700001280DD0032811D1FDF7EDFC18F0EAFC72
:10308000FDF7F5FD002809D0BDE8104009F0AEBB02
:10309000FDF7E1FCBDE8104018F0DCBC10BD01F00C
:1030A00076BA10B501F073FABDE8104009F0DABC49
:1030B00010B501F06CFABDE810404FF0005001F07F
:1030C0008CBC7047704710B501F061FA1C4800785D
:1030D000012803D0BDE8104009F007B9BDE8104051
:1030E00002F042BA704710B501F051FABDE8104045
:1030F0004FF0805001F071BC7047704770477047C7
:10310000704770477047704710B501F040FABDE84E
:103110001040FDF758BD10B501F039FA08480078A5
:10312000012801D102F0FCF906490020086010BD19
:103130007047704710ED00E03C02100006031000DD
:10314000E20210004805002210B55821E4481AF0A8
:1031500098FDE348E349E44A01808280E3494180E5
:10316000E34BC380E34C0481E34C4481E34C848112
:10317000E34CC481E34C0482E34C4482E34C8482FC
:10318000E34CC482E34C0483E34C4483E34C8483E8
:10319000E34CC483E34C0484E34C4484E34C8484D4
:1031A000E34CC484E34C0485E34C4486E34C8486BE
:1031B000E34CC486E34C0487C38741878287E24996
:1031C000A0F84010E1490968B1F86220A0F8422057
:1031D000B1F8C621A0F84420B1F8A120A0F84620FB
:1031E000B1F8F021A0F84820B1F85421A0F84A2005
:1031F000B1F85221A0F84C200022A0F84E20D44A69
:103200001288A0F850204A7DA0F852200A7DA0F82C
:103210005420D04AA0F85620CB4891F84E2742803F
:10322000B1F85C17C180018110BD10B5FDF7DCFE5F
:1032300000EB104081B2C84801220378C748442BF4
:1032400004D1382902D00021017010BD027010BDD8
:103250002DE9F047FDF7C8FE00EB104087B2BE48ED
:103260001C261D2290F80080BD4D1E24BD481F2342
:10327000B6494FF0170C4FF00F09B8F1440F0AD1BF
:10328000382F08D02A70047043700968032081F831
:10329000E801BDE8F08785F800C0047046708370CF
:1032A000C270096881F8E891F3E7AF481322B0498A
:1032B0000378AE48552B02D0027019200CE0A34BC6
:1032C0001B6893F81131DB0702D0A74A521C127811
:1032D0000270A548801C0078087070472DE9F047FF
:1032E000FF222821A3481AF0C4FCA248FDF739FEAA
:1032F000DFF880920E240126D9F80410072545F244
:10330000AA58414503D0D9F8081041453BD1D9F816
:103310000000D9F80820070E424506D1032F01D13D
:10332000C0F30136C0F3032502E00120FFF766FE7B
:10333000D9F80410414504D199F8000000F01F04A9
:1033400002E00220FFF75AFE032F22D1D9F81430F1
:103350004146894A48468B4201D1036900E0874BC8
:103360001360C369864A8B4201D1836900E0854BB3
:103370001360436A844A434502D1D9F8200000E033
:103380008248106005E00120FFF738FE0220FFF7B9
:1033900035FE6E48016891F8F007400702D591F8B4
:1033A000F20704E006F003002A0740EA126091F8F1
:1033B000DA26D20711D0B9F80C2093B243450CD0CD
:1033C000694A921F1278C52A07D120F0F002664898
:1033D000401F0078000742EA106091F8411720F082
:1033E0000C00C1F3C00240EAC200C1F3800140EA10
:1033F000810167480170674880F86010012181767B
:103400001121C1766448017864F30401017040E73A
:1034100070B5FDF75CFAFDF785FC4C4D2868007827
:10342000A52802D00120FFF7DAFD4FF00850012453
:10343000C0F898432868594A90F8271101F0010113
:10344000116090F82701111DC0F340000860FDF7DE
:1034500087FDFDF753FAFDF751FF042801D1FFF76F
:10346000A6FDFDF7ABFCFDF7F5FC4A48802180F88E
:103470006010042181761121C176FFF72FFFFFF73D
:1034800014FF46486C380460FFF7E2FEFFF7CDFEFC
:1034900042480C38046070BD4FF4B95010B50106B5
:1034A0004881FFF7B5FFFFF74FFE3D495F200860F9
:1034B0003C49002008603D483B49016001F5086037
:1034C0003B4908603B4800F095FDFCF7DDFE00F04D
:1034D00073F8FCF7D7FEFCF75BFF012010BD00007E
:1034E000000001200080012058D40120D8CC012008
:1034F000A8000120009F0120C82A0120042B0120E0
:10350000402D01207C2D0120B0320120EC32012021
:1035100074130120B0130120442B0120802B0120C3
:10352000C0340120FC340120D01701200C180120E8
:103530005417012090170120BC2A0120C0CC012083
:10354000CCCC0120681301208C2610003C02100016
:1035500000031000BC1A0120D8021000DA0210008B
:1035600068021000B6021000F2FF0100E60210002F
:10357000E50210000C291000F002100040A5AE0278
:10358000F402100000879303F802100000366E0169
:103590007402100000100020200000208804002287
:1035A0003C2C0120D4021000741410009002100072
:1035B00094021000742510007FB5FCF7C1FE1F4D6A
:1035C000002400BF05EB441000F11002017F4CCA3B
:1035D000CDE90261CDE900230FC8FDF795F810B1E0
:1035E0000220FFF70FFD641C082CEBDB144D0024B8
:1035F00004EB440005EB8001091D55F8200006C9C5
:10360000FDF702F810B10220FFF7FCFC641C082C47
:10361000EEDB0B4D0024603505EBC400416855F826
:103620003400FCF70BFF10B10220FFF7EBFC641C29
:10363000072CF1DB7FBD4068FFF7F3BC98DE01008B
:1036400098DF0100F0B500245F1E26E02546661CC9
:1036500008E000BF30F915C030F916E0F44500DB92
:103660003546761C9E42F5DB30F8146030F815C004
:1036700020F814C020F8156031F8146031F815C036
:1036800021F814C021F8156032F8146032F815C022
:1036900022F814C022F81560641CBC42D6DBF0BDD1
:1036A00001EB8010801001EB41014900182291FBD1
:1036B000F2F300EB400000F5F83002FB1311006854
:1036C00020F07F40C84000F03F0070472DE9F04FE8
:1036D0008CB0074600200790089005900690029055
:1036E0000390F8480125F64E804628E002241EE0AB
:1036F000087D04FB005036F91000B84216DD0323A4
:1037000002AA07A905A8FFF79DFFD8F80000BDF998
:103710001410007D04FB005036F91000814205DAD8
:10372000ADF81C50ADF81400ADF80840641CD8F892
:10373000001040464A7D521EA242D9DC6D1C016831
:10374000097D491EA942D1DC00240DF11C0BB246B3
:10375000C146002502A83BF914C030F91430D9F84D
:103760000000017D504603FB01C63AF91660BE42D7
:1037700035DDD54E76571E4406FB01C2731C03FB94
:1037800001C130F812203AF811006146101A0FFA00
:1037900080F8701EFFF784FF049061463046FFF703
:1037A0007FFF01460498401A002807D0D9F800008E
:1037B0000DDAB0F89C13414511DB0CE0D9F800009C
:1037C000B0F99823424506DAB0F89C1301E0B0F94D
:1037D0009813414503DC00200CB0BDE8F08F6D1C50
:1037E000EDB2022DB6D3641CE4B2032CB1D3012098
:1037F000F2E7F0B5054600204FEA254C4FEA214696
:10380000BCEB060400D564429C421FDA4FEA224713
:10381000BCEB070400D564429C4217DAF41B00D5C8
:1038200064429C4212DA2DB20CB2291B00D54942E7
:1038300099420BDA12B2A91A00D54942994205DA27
:10384000A11A00D54942994200DA0120F0BD2DE9C4
:10385000F0479246012547F6F87256429946AC4623
:103860000024089F17E000BF30F8143031F81480AE
:10387000A8EB03031BB29A4200DD1A469E4200DA0F
:103880001E46002B02DA4FF0000502E001DD4FF08A
:10389000000C04F10104BC42E6DB55EA0C0306D03F
:1038A000012D01D02DB108E0BCF1010F05D100229E
:1038B00003E0BCF1010F00D1324600252C462B4617
:1038C00011E000BF30F8136031F813C01644ACEBC0
:1038D000060636B24E4505DAC9F1000C664501DD33
:1038E0003544641C5B1CBB42ECDB95FBF4F10A44E1
:1038F000002105E030F8113013442AF81130491C3A
:10390000B942F7DBBDE8F08770B5034600200246F8
:103910006E4C09E09D5C521C05F00F0604EB15157A
:10392000A65D2D78304428448A42F3DB70BD88427E
:1039300000D308467047884200DB0846704788423B
:1039400000D808467047884200DC08467047884225
:1039500000D30846904200D3104670472DE9F04747
:10396000D0F810C00568046A85FB0C12A1FB041294
:1039700042694368914683FB02628269E246A6FB84
:1039800002677618D0E9021781FB07C8C069ACFB53
:1039900000C81CEB060682FB0A2CA2FB011280FB6E
:1039A0000902A0FB0502401884FB0712A1FB0312C9
:1039B0000818301A4FEAE071A4E7F0B50025059F1A
:1039C00014E000240EE000BF05FB03F600EB860CBC
:1039D00001EB86065CF824C09CFBF7FC46F824C08B
:1039E000641C64B29C42EFDB6D1C6DB29542E8DB57
:1039F000F0BDF0B50025059F14E000240EE000BFE7
:103A000005FB03F600EB860C01EB86065CF824C090
:103A10000CFB07FC46F824C0641C64B29C42EFDB3C
:103A20006D1C6DB29542E8DBF0BDF0B50025059F39
:103A300017E0002411E000BF05FB07F600EB860C41
:103A400001EB860E5CF824C05EF824E002EB8606EB
:103A5000F44446F824C0641C64B2BC42ECDB6D1C28
:103A60006DB29D42E5DBF0BDF0B50025059F17E086
:103A7000002411E005FB07F600EB860C01EB860E37
:103A80005CF824C05EF824E002EB8606ACEB0E0C7A
:103A900046F824C0641C64B2BC42EBDB6D1C6DB202
:103AA0009D42E5DBF0BD2DE9F04F814609A88A462D
:103AB000B0E822400020DDF834B08A4229D08CE6FC
:103AC000F40C10003C0210001303100030E0010061
:103AD00000241BE0002116E000FB02FC01FB05F8BE
:103AE00000FB0BF609EB8C0C0EEB860603EB88084B
:103AF0005CF821C056F8247058F82480491C0CFB4F
:103B0000087746F824709142E6DB641CAC42E1DBA6
:103B1000401C5045DCDB60E62DE9F0439146002374
:103B20000024224600EBC30609EB830501EB820863
:103B300056F822C055F8247058F82480521C0CFB0B
:103B4000087745F82470022AF0DB5B1C022BE7DBC8
:103B5000BDE8F0832DE9F04391460024002200EBFC
:103B6000C40609EBC405002301EBC30856F823C0C3
:103B700055F8227058F822805B1C0CFB08775BB26A
:103B800045F82270022BEFDB521C52B2022AEADB0C
:103B9000641C64B2022CE1DBDAE72DE9F04389B062
:103BA0000446006800906068019020690290606897
:103BB000039020690490A069059020690690A0698F
:103BC0000790E06908900D466846FFF7C7FE8046FB
:103BD000A0680190E0680490606907908946684693
:103BE000FFF7BCFE064660680190A068029020695D
:103BF0000490E0680590A0690790606908900F46FE
:103C00006846FFF7ABFEC5E90401C5E90267C5E9EF
:103C1000008909B09CE72DE9FF4F4FF0000A89B0F9
:103C20009B465746D146D0465646554654462021D7
:103C300068461AF048F80B9810E00999824431F967
:103C4000102000FB00F102FB01668844414302FBA7
:103C5000009901FB004417440D44401C5845ECDD1D
:103C60000B99ABEB0100401CCDE9000ACDE90654ED
:103C7000CDE90486CDE9027968460A99FFF78DFF00
:103C80000DB0AAE5FE480068017B427B41EA0221B3
:103C9000827BC07B41EA024141EA006040007047FC
:103CA000F74800680179427941EA02218279C079B6
:103CB00041EA024141EA0060704700B5FFF7E2FFC8
:103CC0004008400000BDF8B50E460446FFF7F5FF7A
:103CD0000090FFF7D7FF054604216846FFF714FE62
:103CE00004EB400700240099204623464FF0010CC6
:103CF0000CFA03F20A4207D02A4204D037F8102007
:103D000026F81420641C401C5B1C1E2BF0DBF8BD45
:103D1000C6E7FCB50E460746FFF7CFFF0190FFF759
:103D2000BFFF0090FFF7BCFF0546042101A8FFF785
:103D3000EBFD044604216846FFF7E6FD00EB440076
:103D400007EB400700200099044603464FF0010CA2
:103D50000CFA03F20A4207D02A4204D037F81420A2
:103D600026F81020401C641C5B1C202BF0DBFCBDE3
:103D7000C3490020096891F8E81119B1C1480178D8
:103D8000012088404000704730B5BD4900200968D7
:103D900091F8E81100290DD0BA49BB4B01240978EC
:103DA0001D2908D000215D5C04FA05F21043491C6E
:103DB0000429F8DB30BD00229D5C04FA05F10843BC
:103DC000521C022AF8DB30BD70B5AE4A12781D2AAB
:103DD00008D082880A8002884A80C2888A80408807
:103DE000C88070BD0022A64C012303FA02F62568A4
:103DF00095F8E851354203D030F8125021F81250AE
:103E0000521C062AF1DB70BD00B5FFF73BFF40F006
:103E1000010000BD44E79D4A520102EB810101F11E
:103E20000851086070470178012916D0984941600F
:103E3000491C81609749416196492C3181619449BF
:103E4000891CC160491C0161491FC16191496C31E4
:103E5000016290498D31416270478D49103941604E
:103E6000491C81608B49BD3141618A49E9318161D9
:103E700087490E39C160491C0161491FC1618649EA
:103E8000016285492131E6E7F0B507460598884289
:103E900001DD1846F0BDB84201DA1046F0BD9E1AA9
:103EA000C01B4643CD1B00D10125754C96FBF5F098
:103EB0002468104400B294F8F1470E2CEED1A446C9
:103EC000764CA4F800C04FEA264CA4F802C0A680A5
:103ED0002E14E68025816781A181E28123826082A0
:103EE000F0BDF0B507460598884201DD1846F0BDE3
:103EF000B84201DA1046F0BD9E1AC01B4643CD1BE6
:103F000000D101255E4C96FBF5F02468104400B208
:103F100094F8F1470E2CEED1A446604CA4F800C0F2
:103F20004FEA264CA4F802C0A6802E14E680258114
:103F30006781A181E28123826082F0BD30B50023D8
:103F400004465242184615B209E000BF34F9132066
:103F5000AA4203DA002A00DA524210445B1C8B4268
:103F6000F4DB30BD01EB8010801010B501EB410196
:103F70004900182391FBF3F403FB141300EB4000FA
:103F800000F5F8303F2401689C40A1439A400A4361
:103F90000270110A4170110C817010BD821002EB89
:103FA00042020A4400EB40004000182190FBF1F36C
:103FB00001FB1301106820F07F40C84000F03F0073
:103FC0007047831003EB430310B51A4400EB400025
:103FD0004000182390FBF3F403FB14033F24106804
:103FE0009C40A043994001431170080A5070080C8E
:103FF000907010BD2DE9F14F82B04FF0000B782189
:10400000029819F060FEFFF7FFFE4FEA5008FFF735
:1040100047FEDC46814666464FF0010A0AFA06F181
:1040200011EA090F25D000240AFA0CF001272546D1
:10403000CDF800000AFA05F010EA080F14D0314656
:104040002846FFF72DFBA04208D00299009A51F8AC
:1040500027101143029A42F8271003E00BF10101E7
:104060001FFA81FB04467F1C6D1C272DE2DB0CF13F
:10407000010C761C202ED1DB5846BDE8FE8F0000D7
:104080003C02100068021000B60210003C2C012017
:10409000F7FF010040F8010069F9010058D4012040
:1040A0002DE9F04F0024834622460121FE48D0F836
:1040B00000A09AF81450A5F1010622E00320012384
:1040C000DFF8E8E303FA01F99AF8157016E000BF8B
:1040D0005EF820C01CEA090F0FD0A0F1010300FB1D
:1040E000051C03FB05183BF91CC03BF91830BCEB61
:1040F000030300D55B421C44521C401C8742E7DC92
:10410000491C8E42DADC02B9012294FBF2F0D6E4BB
:104110002DE9FF4F85B0002103910291019100919B
:10412000E149012B0C6894F8775005F00F0700D196
:104130000027667D94F87A30C7F1100BB34200D2A5
:104140001E4600230493012381E000BF4FF00009C5
:10415000C84603241FE0D54951F824C001219940E5
:104160001CEA010F04FB053130F911C0A4F1010173
:1041700001FB053130F91110ACEB010106D000292B
:1041800000DA4942DDF818C0A1EB0C01002900DA81
:1041900049428944641CB442DDDB31469EF815A0D7
:1041A0001FE0C24C54F821C001249C401CEA040FBB
:1041B00001FB053430F914C0A1F1010404FB0534FE
:1041C00030F91440ACEB040406D0002C00DA644251
:1041D000DDF818C0A4EB0C04002C00DA6442A04403
:1041E000491C8A45DDDC0499012910D10199B1EB04
:1041F000090101D5C1F10001039C214403910099FB
:10420000B1EB080100D54942029C21440291CDE95D
:1042100000899EF87B10994216D11168039D79435D
:104220000BFB0511CC1701EB14710911116091689A
:10423000029D79430BFB0511CC1701EB1471091199
:10424000916000210391029101215B1C0491964928
:10425000D1F800E09EF81450691E99423FF776AFFE
:104260005068039978430BFB0100C11700EB1170F4
:1042700000115060D068029B78430BFB0300C1170C
:1042800000EB11700011D06009B018E430B504469D
:1042900000200222A1F101010BE000BF04EB420566
:1042A00034F9123035F9025C5B1B00D55B421844CF
:1042B000521C8A42F2DB30BD70B57B4A00200146B9
:1042C00012687B4C537D0BE034F91150B2F8506406
:1042D000B54203DBB2F85264B54200DD0120491C4F
:1042E0008B42F1DC70BDF0B56F4C002003462468B2
:1042F000014602466E4E677D06E000BF36F9135058
:10430000954200DD2A465B1C9F42F7DC0023694E84
:10431000277D05E036F913508D4200DD29465B1CF0
:104320009F42F7DCB4F84E348B4201DB934200DA53
:104330000120F0BD2DE9F04F5B49002318460C68C1
:1043400094F84914267DC1F3C001B4F865B4B4F8FB
:1043500067A4A6EB010926E0657D0322DFF84CE1A6
:10436000DFF85481A5F1010519E000BF5EF822C015
:10437000012707FA01F71CEA070F0ED102FB061707
:1043800038F917C0A2F1010707FB061738F91770B3
:10439000BCEB070700D57F423B44521CD2B295428A
:1043A000E4DC491CC9B28945D6DC44499B450B6015
:1043B00002D2534500D20120A9E603E011F8013BE7
:1043C00000F8013B521EF9D270477CB50D460446F9
:1043D000FFF773FC0090FFF763FC01900098042145
:1043E000400800906846FFF78FFA0646042101A8AE
:1043F000FFF78AFA3044820021462846FFF7DDFFA6
:104400007CBD0B46284909684A7D097D521C4A43F8
:10441000014652001846D0E72DE9F04104466421D8
:1044200019F051FC0025204E25806580306890F8F9
:10443000940700F0010045EA40106080A560FFF796
:10444000E3FCE060FFF72CFC1D4F20611D497888DC
:10445000608309785A2904D11A49491C097808440B
:104460006083306800F24670C27A817A02F03F02BF
:1044700041EA0221A1834178E17590F84910217544
:104480000178A17581782176017BA1770D49407B68
:10449000083100F0F000097801F00F010843E077DF
:1044A000FFF766FC60620FE03C021000742510000C
:1044B000442B0120802B0120D8CC0120A802100021
:1044C0008C261000EEFF0100FFF75EFCA062FFF7F4
:1044D000F4FBE062FFF7E4FB20632C34F8882081D2
:1044E000E081306800F5E96090F84810217690F896
:1044F0004A10617690F84B10A17610F84E1CE176C8
:1045000001212177657790F84920A277C28A6281DC
:104510002282027E2273427E6273827EA274C27EF7
:10452000E274827F84F823206575257510F8562C77
:104530002C3CA0F5E960D2070BD090F8F30600F010
:104540000F0084F86000608840F480606080BDE8FF
:10455000F08184F86010FAE710B50446FBF794FE8A
:10456000012C0BD1FE48006890F81001800705D59A
:10457000FCF7B5F938B1FCF7AEF904E0FCF7AFF998
:1045800008B9FCF7A4F9BDE81040FBF77BBE00209A
:10459000E2E7F34B10B51A68947E640704D5D28A1B
:1045A0000468A2EB040202601A68947EA40703D593
:1045B000128B0C68121B0A600268002A00DA0022C3
:1045C00002601C68E48AA24200DD224602600A689A
:1045D000002A00DA00220A601C68248BA24200DD57
:1045E00022460A601B689B7EDB0702D003680B60D3
:1045F000026010BDF0B5DA4D002301242D6895F856
:10460000E85100BF04FA03F635420AD031F91360CD
:1046100030F91370F61B32F91370BE4201DD012030
:10462000F0BD5B1C062BEDDB0020F0BDF0B50025D6
:104630002C46059E0AE000BF31F9147030F914C011
:10464000A7EB0C07974200DD6D1C641C9C42F3D362
:10465000B54201D30120F0BD0020F0BD2DE9F043AB
:104660009946DDE90787002423460DE031F9135010
:1046700030F9136005EB020C664503DAA5EB09057A
:10468000AE4200DC641C5B1CBB42EFDB444502D93C
:104690000120BDE8F0830020FBE72DE9F04F8A46BA
:1046A000DDE90997012547F6F8714E429346AC467D
:1046B000002416E030F814803AF81420A2EB080227
:1046C00012B2914200DD1146964200DA1646002AE7
:1046D00002DA4FF0000502E001DD4FF0000C04F1BA
:1046E0000104BC42E6DB55EA0C0206D0012D01D0E4
:1046F0002DB108E0BCF1010F05D1002112E0BCF1A1
:10470000010F00D13146002905DD03EB0902B1EBB1
:10471000420FF2DC06E005DA03EB09025242B1EB8C
:10472000420FEADB00252C462A4610E030F81260E2
:104730003AF812C00E44ACEB060636B29E4205DAD9
:10474000C9F1000C664501DD3544641C521CBA42B7
:10475000ECDB95FBF4F20A44002105E030F811305F
:1047600013442BF81130491CB942F7DBCFE4F0B504
:104770000646002004460546521C059F0AE000BF7D
:1047800036F911C09C4504DDA44502DD64460D46A2
:104790000120491C9142F3DB3D60F0BD30B5026859
:1047A000002513460AE000BF50F82540944201DD81
:1047B000224602E09C4200DA23466D1C8D42F3DB68
:1047C000D01800EBD070401030BD70B5644B1B6842
:1047D0005C7D1B7D641C5C43002307E032F81350B2
:1047E00030F81360AD1B21F813505B1CA342F5DBBE
:1047F00070BD70B55A4B1C68247D611A10E001240D
:1048000009E02D7D04FB0515641C30F9156096FB4D
:10481000F2F620F815601D686E7DA642F1DA491C9B
:104820001C68247D8C42EADC70BD4E490120086082
:104830004FF470714C4819F024BA2DE9F041064646
:1048400015460F46302801D1FFF7EFFF454C206891
:104850002844401CB0F5707F01D2206801E001209F
:104860002060414908700E542DB10844401C2A466E
:104870003946FFF7A2FD20682844401C206066E608
:104880003A48002101220170427081707047374818
:104890000078704730B5324A126892F8FD26D30787
:1048A0000BD0D506324A4FF000034FF0010407D574
:1048B000151F2860012901D1136030BD146030BD7F
:1048C0002B4D083D28600129F8D0F5E72DE9F84F78
:1048D000234C00264FF00057206890F8FD0645094C
:1048E00097F8510000D101250720FBF7B8FEFBF730
:1048F0006EFFDFF87880C8F8080020684FF00104E8
:1049000090F8FD06C00603D5062087F8510001E0A7
:1049100087F8514000210120FFF7BCFF4FF41670CB
:10492000FBF7B8FC4FF0E02A4FF480594FF0000B32
:10493000CAF880924FF040514446D8F80800FBF77F
:10494000CCFDDFF83080012088F80000E8B2FCF7E9
:10495000ABF8CAF800916B4600224FF040510BE0D3
:104960003C02100040021000280801201003100033
:10497000280A0022E3021000A068FBF7CFFD4FF0E9
:104980004051A068FBF7A9FD0098C00000D50126A2
:104990002078B04202D1607801280CD197F85100FC
:1049A000AEB140EA0522DD20A16807F0D4FD00BFCA
:1049B00084F801B0267000210846FFF76BFF88F8E5
:1049C00000B00720FBF766FE2078BDE8F88F40EACC
:1049D0000521092007F0A7FDEAE710B504462E4897
:1049E0004FF480510160FCF76CF82C482146806838
:1049F000BDE81040FBF742BD70B52948006890F84B
:104A0000D010CA0727491DD090F8D12002F00F021C
:104A1000531C0A2B01D90A2200E0521C00F1D204D7
:104A200000234D8805E000BF34F81360B5420CD078
:104A30005B1C9342F8DBB0F84E274A80B0F8E820C0
:104A40000A8002E0B0F84E274A8090F88023D2070F
:104A50001DD090F8812302F00F02531C0A2B01D9BC
:104A60000A2200E0521C00F282350023CC8804E0C8
:104A700035F81360B44209D05B1C9342F8DBB0F800
:104A80005C27CA800A81B0F8AC03888070BDB0F89A
:104A90005C07C880088170BD80E100E01003100051
:104AA0003C0210008C26100010B501462022F94867
:104AB000FFF783FCBDE810404FF400610120FBF7D5
:104AC000DDBC2DE9F0419AB080460D46144668469B
:104AD000FFF7A2FCE0074FF0010701D0ADF800702E
:104AE000A00705D5BDF8000040F00800ADF80000B3
:104AF000600608D5E84900200870BDF8000040F4C1
:104B00008060ADF80000600733D5E44E306890F85F
:104B1000FD06C0070DD0FFF7D9FE0621012805D0FC
:104B2000BDF8020040F00200ADF80200ADF8001040
:104B300005E0BDF8000040F00600ADF80000A00759
:104B400011D1BDF8000040F00100ADF80000306860
:104B500000F2211041788DF8171001788DF81E10A1
:104B600080788DF82200CE480088800501D58DF828
:104B70004970CC49ADF81A80ADF83A50ADF83450D0
:104B8000097840465A2905D1C649491C0978084484
:104B9000ADF81A00AFF2EF00BE4D03244FF40066EB
:104BA00002906846FCF741FF19AB00223146012014
:104BB000FBF7B4FC31460120FBF78FFC2878002876
:104BC00004D0FEF7F4F9641E002CEADC1AB0BDE84C
:104BD000F0812DE9F041B14A0024214612682546B2
:104BE00010F4D17F04D092F8221004254FEA11115D
:104BF00010F0050F05D092F8213045F001054FEA7D
:104C00001314C00604D592F8210045F002050409EA
:104C10008C4200DA0C46641C002DD8D00026A24F2E
:104C200005E0F98878882A46FFF74BFF761CA642F4
:104C3000F7DBCCE72DE9F047824698480068457DD0
:104C4000017D90F821006D1C00F00F074D437F1C83
:104C50004FF48851954819F036F80024DFF848825F
:104C6000DFF83092914E18E0B8F806100122504655
:104C7000FFF727FF8E49D9F8040006F024FA8C4983
:104C8000002007E056F8202031F910301A4446F889
:104C90002020401CA842F5DB641CBC42E4DBBDE8DC
:104CA000F0872DE9F35FDFF8F4818B46D8F8000038
:104CB000457D017D90F821006D1C00F00F074D43EC
:104CC0007F1C4FF48851794818F0FDFF0026774C7F
:104CD000DFF8D491DFF8BCA119E000BFB9F80610E5
:104CE00001220098FFF7EDFE7149DAF8040006F0A2
:104CF000EAF96F49002007E054F8202031F910301C
:104D00001A4444F82020401CA842F5DB761CBE4221
:104D1000E4DBD8F8000090F8210000F00F01491CF6
:104D2000002006E054F8202092FBF1F22BF810202E
:104D3000401CA842F6DBBDE8FC9F2DE9F34F574D20
:104D400087B08B462868182190F8210000F00F07E3
:104D50007F1C684618F0B7FF00266C46DFF84891C4
:104D6000DFF830A1DFF84C8119E000BFB9F8061078
:104D700002220798FFF7A5FE4E49DAF81000FFF768
:104D800023F800204FEA080154F8202031F91030B0
:104D90001A4444F82020401C0628F5DB761CBE424D
:104DA000E4DB2868444E90F8210000F00F01491C14
:104DB000002001222B6802FA00F793F8E8313B4209
:104DC00007D054F8203093FBF1F32BF8103026F87D
:104DD0001030401C0628EDDB09B0BDE8F08F2DE94E
:104DE000F74F2E4D84B09146286830F83B1F039151
:104DF00040880290FEF761FF0090FEF789FF019066
:104E000004216846FEF780FD8046042101A8FEF7D4
:104E10007BFD404446002868B10090F8220000F075
:104E20000F04641C214818F04EFF296891F8F10224
:104E3000C20706D0800704D491F8F202044405F0BA
:104E40009FFD0027DFF864B0AA4644E0164804221C
:104E500005994088FFF735FEDAF800100D4891F803
:104E60009417C568C90704D041692A46284605F049
:104E700033FEDAF8000090F8F102C10707D080078E
:104E800005D40E49284605F097FD18B30B4D0020B8
:104E900059461DE010471000570210003C02100058
:104EA00050021000EEFF01008C2610007414100058
:104EB000F40C1000BC2A0120C0CC012090AB0120D2
:104EC00051F8202035F910301A4441F82020401CB8
:104ED000B042F5DB7F1CA742B8DBDAF80010FD4CCE
:104EE000504691F8221001F00F0303F101034FF037
:104EF00000011CE05BF82120056892FBF3F295F8B5
:104F0000F1725FEAC77C08D0BF0706D595F8F27248
:104F10007F1C5743B5F8F322BA1AB1EB480F01DAF8
:104F2000039D00E0029D2A4424F81120491CB1424F
:104F3000E0DB049810F0220F09D02046D9F80010C9
:104F4000FEF7C1FE2046D9F80410FEF7E2FE07B0D6
:104F500043E72DE9F0479A46DF4B894600210125BA
:104F6000DE4E1C681BE000BF32F8113030F81170C3
:104F7000DB1B1FB200230AE0C3EB031C06EB8C0C07
:104F80005B1C3CF811801BB2B8442CF8118094F8DB
:104F900080C305EB9C1C9C45EEDC491C09B2637D7B
:104FA0008B42E1DC0020CE4A19E000BF3AF8103015
:104FB00039F81010591A0BB2002108E002EB8116E3
:104FC000491C36F8107009B21F4426F8107094F886
:104FD000806305EB96168E42F0DC401C00B2217D0A
:104FE0008142E3DC5BE62DE9FE4F00258246BA4CA8
:104FF0002F46DFF8E882DFF8E892012612E000BFD2
:1050000000EB4500C5EB0512B0F8B11308EB8200C8
:10501000009009EB8510CDE901076A465046FFF77D
:10502000DEFE6D1C206890F8801306EB9111A942FA
:10503000E6DC90F85011C90710D090F891110906DC
:105040000CD5407DA5494200A648FFF7B6F9206877
:10505000A349007D4200A448FFF7AFF9BDE8FE8FE9
:10506000FEB59D4AA14900241268012300F4907501
:1050700092F88063C98803EB961306E002EB4406BE
:10508000B6F8B163B14202D0641CA342F6DCA3427D
:1050900019DDC5B192F85001C00703D192F8200282
:1050A000C0070FD08D49C4EB041001EB80013C22F6
:1050B0008F48FFF782F98A48402200EB84118D481F
:1050C000FFF77BF9FEBD00220292894A0092894ACD
:1050D00001926A46FFF783FEFEBD2DE9FC47FEF70D
:1050E000ECFD0090FEF714FE019004216846FEF7E7
:1050F0000BFC0446042101A8FEF706FC764E204472
:1051000044003068A10090F8220000F00F077F1CD7
:10511000704818F0D8FD0025DFF8DCA1DFF8B49165
:10512000B04622E071484022C1884088FFF7C9FCA0
:10513000D8F80010DAF8186091F89417C90705D06C
:1051400032463046DAF8141005F0C6FC0020494615
:1051500008E000BF51F8202036F910301A4441F819
:105160002020401CA042F5DB6D1CBD42DADBD8F8E4
:105170000000584E454690F822004B4600F00F00C4
:10518000401C002107E000BF53F8212092FBF0F201
:1051900026F81120491CA142F6DB58493046FEF79B
:1051A00092FD57493046FEF7B4FD286890F820106C
:1051B000090711D5534C00212160417D4F48FFF76D
:1051C00065F82168084420602868017D4C48FFF795
:1051D0005DF8216808442060BDE8FC8770B504468E
:1051E0000020FBF73CFA0320FBF739FA3A4D286818
:1051F00090F82010490701D424F4006490F850116D
:10520000C90705D190F82012C90701D124F0620422
:1052100090F88013490701D424F4B07490F8D010AA
:10522000490701D424F0040490F8E81109B924F0E6
:10523000100490F8041309B924F4C07490F85002D3
:10524000C00701D124F4806460060BD52A483C22B3
:1052500027497C38FFF7B1F82748402225494038D4
:10526000FFF7ABF828490020401C8842FCD32005FA
:1052700002D52046FFF7ADFC14F4907F02D0204603
:10528000FFF7B1FE194EE00721D070881F49FFF7E4
:1052900008FD286890F8200000070AD51B48FEF793
:1052A000FFFE1B4901231B4A086001461748FEF711
:1052B0002FFF286890F84904C00708D0164800213D
:1052C00002780170012A204648D002F05EFDE00617
:1052D00028D523E0741410003C021000E8140120CB
:1052E00014160120D8150120141701208C26100057
:1052F00074130120B013012010471000541701202F
:1053000090170120CC04100020A10700A800012064
:10531000A4021000EC251000A40310007088BA4904
:10532000FFF70BFD600501D5FFF7D7FE14F0820FE4
:1053300002D02046FFF794FE600606D5B549B34B70
:10534000B34AA1F13C00FFF704FE286890F8100171
:10535000C0060AD5B048007818B106E002F097FC04
:10536000B5E78021AD4818F08CFCAD4901200870EC
:10537000AC49087006F093FF0020FBF78BF9BDE8FD
:1053800070400320FBF786B92DE9F041A6490025BE
:10539000A64A0968A64EB1F8B133834219D291F8F2
:1053A00080339C0901EB4407B7F8B173874209D9F0
:1053B000012404EB931312E001EB4407B7F8B17337
:1053C000B84201D1254602E008D2A4F10105A54268
:1053D0001CD191F85001C00708D103E0641CA3421E
:1053E000EADCF6E791F82002C0074CD0C5EB0510C7
:1053F00002EB80013C228648FEF7DFFF06EB8511B9
:10540000BDE8F04140228148FEF7D7BF01EB4405DB
:10541000B5F8AF33B5F8B153C01A0002EB1A90FBE0
:10542000F3F391F85001C00703D191F82002C007AF
:1054300029D0774DC4EB0411002002EB810100BF9D
:1054400001EB400231F9107032F93C2CBF1A5F4376
:1054500002EB272225F81020401C1E28F0DB6B4DA4
:10546000002006EB841100BF01EB400231F910402F
:1054700032F9402CA41A5C4302EB242225F81020B8
:10548000401C2028F0DBBDE8F0812DE9F04169489F
:105490000124694E047000253560192000F0A8F839
:1054A000192000F08DF8654F052038724FF4167002
:1054B000FAF7F0FE604844380560FF213970346027
:1054C0000460E0E770B55B485D4C01250570207F06
:1054D00040F0040020775448006890F81101C0079C
:1054E00005D00A2000F084F80A2000F069F80021B5
:1054F00084F860105C22A2761120E07684F8605077
:105500005823A376E0764C4B443B19604B4EFF2169
:105510003170042184F86010A276E0761D6070BDC1
:1055200070B54548002444380460444D08352E7950
:10553000192000F051F8C6F1FB002978C0B2491CCF
:10554000B0FBF1F03F4908703A48047036480068F3
:1055500090F81101C00702D0BDE87040B2E73949A8
:105560005520891E087070BD10B5354C207F40F065
:10557000040020772C48006890F81101C00702D081
:105580000A2000F029F82D490A7B2B4B0020443BD0
:10559000186084F860005C23A3761123E376097811
:1055A000891A89B24FF4FA42B2FBF1F1254A09098E
:1055B000521E11705521521E11701E49087010BDE7
:1055C00000F01F020121914040094FF0E02202EB60
:1055D0008000C0F80011704700F01F0201219140C7
:1055E00040094FF0E02202EB8000C0F880117047C4
:1055F00000F01F020121914040094FF0E02202EB30
:105600008000C0F88012704768130120B013012099
:1056100074130120D046100077021000402C0120A6
:1056200056021000CC0210003C021000E8140120C9
:1056300014160120E2021000480500222E0000206E
:1056400000100020F4FF010010B501462022FC48A4
:10565000FEF7B3FE8021BDE810400120FAF70EBF2F
:1056600030B59BB004466846FEF7D6FE0021012CFB
:1056700002D0022C02D008E0012000E00820ADF8A2
:1056800000008DF816108DF81410BDF80200AFF26E
:10569000470140F4A670EA4D0291ADF802000324E0
:1056A0006846FCF7C2F919AB002280210120FAF705
:1056B00035FF80210120FAF710FF2878002804D058
:1056C000FDF775FC641E002CEADC1BB030BD2DE933
:1056D000FC5F4FF0000BFEF74BFB0446FEF754FB5C
:1056E000D84907460020086048608860D6494FEADC
:1056F000540980460860486088604FF0010A022023
:10570000FFF7AEFFCE48002426460069CDF8000022
:105710000AFA06F010EA090F38D000250AFA05F156
:10572000394230D0C9490AFA04F0096891F8E81101
:10573000014228D029463046FDF7B2FFC349C14A8D
:10574000096832F91430B1F80AC2B3EB0C01009BBE
:1057500033F91430A3EB0C0C00D54942BCF1000F17
:1057600001DACCF1000C614504DBB74922F81430B2
:1057700021F814003F2805D2401CC2B22946304609
:10578000FEF7F0FB641C6D1C202DC7DB761C272E5A
:10579000BEDBFCF756FE08F10108B8F1400FAEDBA6
:1057A000012000900220FFF75BFFD0460026DFF8C3
:1057B0009CA2354608FA05F010EA090F1ED0002415
:1057C00008FA04F1394216D0DAF8001008FA06F0A7
:1057D00091F8E81101420ED09B48214610F81600BE
:1057E000019002462846FEF7BDFB01983F2801D3F1
:1057F00000200090761C641C202CE1DB6D1C272D02
:10580000D8DB009810B90520FDF7F4FBFCF719FE72
:105810000220FFF725FF8A488D490069FEF7D4FA78
:10582000DAF800408A4D002094F8E831424600BF83
:1058300002FA00F10B421CD035F91010002902DCED
:105840004BF0020005E040F6FF76B14203DB4BF07F
:105850000100834610E0B4F80A72B4F8BE6107EBA9
:10586000060C8C4505DABF1B8F4202DD0EB14BF0F2
:10587000040B401C0628DBDB5846BDE8FC9F2DE9E5
:10588000F05F72490A6892F83001050671480378A2
:1058900003F00F0407D492F83E1121F00F012143C9
:1058A0000170BDE8F09F0025DFF894A183460470E5
:1058B0002E46012789460220FFF7D2FE6449DAF816
:1058C0001000FEF781FAD9F80020614B002092F811
:1058D000E81100BF07FA00FC11EA0C0F05D033F9FC
:1058E00010C0B2F80882C445DBDB401C0628F1DB9F
:1058F0000F2D08D26D1CEDB244EA0510761C8BF812
:105900000000102ED7DBBDE8F05F0420FDF772BB6E
:10591000F0B54B4900204D684C490A68537D117D14
:105920005B1C01FB03F41CE035F91130002B02DC99
:1059300040F0200014E040F6FF76B34202DB40F076
:1059400010000DE0B2F83471B2F8BE6107EB060C3E
:105950009C4505DABF1B9F4202DD0EB140F04000BE
:10596000491C8C42E0DCF0BD2DE9FE4FFEF74CFAFD
:105970000446FEF74FFA07464FEA540B4FF4F06126
:10598000354818F07EF92E484FF027098021203045
:1059900018F099F9002001900120FFF761FE2848D6
:1059A000D0F804A029480068057D01200024029059
:1059B0006EE0012000FA04F111EA0B0F67D0002617
:1059C000012000FA06F818EA070F56D01C482030CC
:1059D00050F8241011EA080F4ED131462046FDF749
:1059E0005FFE009019483AF915100068B0F83401CC
:1059F000814235DC184B33F91520121AA1EB000057
:105A000000D55242002800DA4042824209DC009868
:105A10003146401EC0B2024600902046FEF7A2FA70
:105A200001E023F815100D49009821F815000448ED
:105A3000203050F8241041EA080140F824101BE0FF
:105A400030471000C0CC0120CCCC01203C0210001B
:105A5000BC2A0120F6FF0100D8CC012058D4012037
:105A600000983146401CC2B22046FEF77BFA7548CA
:105A70003AF8151020F815106D1C761C202E9FDBAF
:105A8000714850F82400B84201D000200290641CF4
:105A90004C458EDB029838B9FCF7D3FC0198401CCA
:105AA00001904028FFF678AF68484FF0010A0025C2
:105AB0000068067D1DE0012000FA05F111EA0B0FD8
:105AC00016D000240120A04038420ED06048214664
:105AD00010F81600804602462846FEF743FAB8F151
